:100000005929FF3FFF3FFF3FF100030E8301F2003C
:100010000408F0000A08F3008A0100300B190130CF
:10002000F50001307502031D1828FF30F60019286D
:10003000F601FF307602031D6F280B11A00A013074
:100040002002031D2F2806122008F700F703213095
:100050008400770884070008880086146F2802301F
:100060002002031D4E2886102008F700F7032130D8
:1000700084007708840700088800FF302502031DEC
:100080004428FF30F8004528F801FF307802031DAE
:100090004C2880300804880006156F2803302002A1
:1000A000031D5E2806112008F700F70321308400A5
:1000B000770884070008880086156F28043020021E
:1000C000031D6F2886112008F700F70321308400F4
:1000D00077088407000888000616A0016F28003002
:1000E0000C180130F90001307902031D7A28FF3025
:1000F000FA007B28FA01FF307A02031DDD280B305D
:100100008F00DC308E000C10A509A60300302602FB
:10011000031D8D28FF30FA008E28FA01FF307A0285
:10012000031DDD287830A600A70A0A30270203192C
:100130009C28FF30FA009D28FA01FF307A02031D47
:10014000A228DD28A701A80A063028020319AB2837
:10015000FF30FA00AC28FA01FF307A02031DB12803
:10016000DD28A801A90A02302A02031DBA28FF309F
:10017000FA00BB28FA01FF307A02031DCE280430B2
:100180002902031DC628FF30FA00C728FA01FF30F4
:100190007A02031DCE28AA01A901DD280A3029020E
:1001A0000319D528FF30FA00D628FA01FF307A0269
:1001B000031DDB28DD28A901AA0A73088A0070083C
:1001C0008400720E8300F10E710E090000300313DB
:1001D00083122C02031DEF283F30AB005829013059
:1001E0002C02031DF6280630AB00582902302C02E1
:1001F000031DFD285B30AB00582903302C02031D82
:1002000004294F30AB00582904302C02031D0B2960
:100210006630AB00582905302C02031D12296D30C1
:10022000AB00582906302C02031D19297D30AB0084
:10023000582907302C02031D20290730AB0058290C
:1002400008302C02031D27297F30AB0058290930C4
:100250002C02031D2E296F30AB0058290A302C02C6
:10026000031D35297730AB0058290B302C02031DB4
:100270003C297C30AB0058290C302C02031D43294B
:100280003930AB0058290D302C02031D4A295E304D
:10029000AB0058290E302C02031D51297930AB00D8
:1002A00058290F302C02031D58297130AB005829F2
:1002B00008000313831685018601880180308100C0
:1002C0008312A001AA01A901A801A7010130831688
:1002D0008C003130831290000B308F00DC308E00A8
:1002E0007830A600A501E0308B002A08AC00E6209B
:1002F000031383122B08A1002908AC00E620031386
:1003000083122B08A2002808AC00E62003138312F6
:100310002B08A3002708AC00E620031383122B0848
:10032000A40075299229FF3FFF3FFF3FFF3FFF3F9A
:02400E00793FF8
:00000001FF
