:100000001829FF3FFF3FFF3FFF00030E8301AC00B5
:100010000408AB000A08AD008A017008B000003087
:100020000B190130F1007108013A031D63280B110F
:10003000A00A2008013A031D2A2806122130F100E7
:100040002003F0007108F0077008840000088800A1
:10005000861463282008023A031D402886102130A8
:10006000F1002003F0007108F00770088400000818
:1000700088002508FF3A031D3E28881706156328C7
:100080002008033A031D512806112130F1002003F6
:10009000F0007108F00770088400000888008615D9
:1000A00063282008043A031D632886112130F100DB
:1000B0002003F0007108F007700884000008880031
:1000C0000616A001632801300C05F1007108013A01
:1000D000031D98280B308F00DC308E000C10A50912
:1000E000A6032608003A031D98287830A600A70A20
:1000F00027080A3A03197D289828A701A80A280882
:10010000063A031984289828A801A90A2A08023A5D
:10011000031D91282908043A031D9128AA01A90169
:10012000982829080A3A031996289828A901AA0AA2
:100130003008F0002D088A002B0884002C0E830064
:10014000FF0E7F0E0900031383122E08003A031DD1
:10015000AC283F30AF0015292E08013A031DB32803
:100160000630AF0015292E08023A031DBA285B306D
:10017000AF0015292E08033A031DC1284F30AF00E8
:1001800015292E08043A031DC8286630AF0015292A
:100190002E08053A031DCF286D30AF0015292E0813
:1001A000063A031DD6287D30AF0015292E08073AE0
:1001B000031DDD280730AF0015292E08083A031D5E
:1001C000E4287F30AF0015292E08093A031DEB28DB
:1001D0006F30AF0015292E080A3A031DF228773038
:1001E000AF0015292E080B3A031DF9287C30AF000B
:1001F00015292E080C3A031D00293930AF001529A6
:100200002E080D3A031D07295E30AF0015292E0870
:100210000E3A031D0E297930AF0015292E080F3A2A
:10022000031D15297130AF0015292F08F0000800B3
:1002300003138316850186018801803081008312B3
:10024000A001AA01A901A801A701013083168C0011
:100250003130831290000B308F00DC308E0078300C
:10026000A600A501E0308B002A08AE00A32070088C
:10027000A1002908AE00A3207008A2002808AE0043
:10028000A3207008A3002708AE00A3207008A400D4
:1002900034294929FF3FFF3FFF3FFF3FFF3FFF3F1B
:02400E00793FF8
:00000001FF
