:1000000000308A009B2800002908F8012802031804
:100010000C282808F7001828F7010830AA00A80DB6
:10002000F70D290877020318F700F80DAA0B0F281F
:1000300000342030231E3030A4002208F700A21F15
:100040002828F709F70A7708A2002D30A400A31783
:100050002208A8006430A90004207708A2003030EC
:100060007807A5002208A8000A30A9000420303033
:100070007707A70030307807A6002408F700A31DF3
:100080004328A31F2311231A5028A31F6B282319C9
:100090006B287708A500A3186B287708A6006B28A3
:1000A00030302502031D6B287708A5002030A400FE
:1000B000A31D5E282311A314A31FA3103030260212
:1000C000031D6B287708A6002030A500A31D5E281D
:1000D000A310A31F2310231D712824080C1E6E28B3
:1000E0009900A31C772825080C1E74289900231C4E
:1000F0007D2826080C1E7A28990027080C1E7E28C9
:1001000099008A110A12BB28233084008313000847
:10011000031998280130F800F701F70B8D28F80B28
:100120008C284A30F700F70B93289628800B8A28F2
:100130008A110A12C828840183131F3083051930DD
:1001400083169900A6309800903083129800831689
:100150001F149F141F159F1107309C008312A101CB
:10016000FF308316860083120608A1002108A20032
:100170001F30A30019280D300C1EBC2899000A302E
:100180000C1EC02899001430A200FA30A300842865
:08019000A20BC528B028630092
:02400E00711F20
:00000001FF
;PIC16F877A
