:1000000000308A002C2800000A108A100A1182078A
:100010005034723465347334733469346F346E34ED
:100020006F3475342034413430340D340A340034A4
:100030000A108A100A1182075034723465347334FE
:10004000733469346F346E346F3475342034413412
:1000500031340D340A340034840183131F30830596
:10006000193083169900A6309800903083129800BA
:1000700083161F149F141F159F1107309C002030FA
:100080008312A1008C1E86288C1E44281A08A10009
:100090002108303C031D51280514831605105828EB
:1000A00083122108313C031D5928851483168510BD
:1000B0008312831605148312051C7028A2012208DE
:1000C0000420A20AF70077080C1E642899000F305C
:1000D0002202031D5F280510831605108528831250
:1000E000831685148312851C8628A20122081820F5
:1000F000A20AF70077080C1E7B2899000F30220215
:10010000031D76288510831685108312422863000C
:02400E00711F20
:00000001FF
;PIC16F877A
