:020000040000FA
:02000000E628F0
:080008000900AD0803191828D6
:10001000AE0803191828B001AF012D08AF07031867
:10002000B00AAE0B0D283008AE002F08AD00080056
:10003000AD01AE0108006400A100A0010000A00B0A
:100040001E28A10B1E280800891086128800282867
:10005000292809152B2809118914310888008616CA
:1000600001301B200800AA01A901A801A701A601CF
:10007000AC08031D4128AB0803190800AC0803199C
:100080004228AB0A6400AA0A0A302A06031D5C282B
:10009000AA01A90A0A302906031D5C28A901A80A99
:1000A0000A302806031D5C28A801A70A0A30270683
:1000B000031D5C28A701A60AAC0B4228AB0B422803
:1000C0000800A200813024205630252061302520F0
:1000D0006C3025206F3025207230252020302520DF
:1000E000413025202F302520443025202030252068
:1000F0002208AC00AB0133202808303E2520290817
:10010000303E25202A08303E2520C130242054309E
:100110002520653025206E30252073302520613064
:1001200025206F302520203025202208AD001430F6
:10013000AE0005202E08AB002D08AC0033202708A8
:10014000303E25202C3025202808303E2520290847
:10015000303E25202030252056302520B101B32007
:1001600064301B2008001F302202031931140318C9
:1001700031143F3022020319B1140318B1145F3057
:10018000220203193115031831157F302202031999
:10019000B1150318B1159F30220203193116031847
:1001A0003116BF3022020319B1160318B116DF3021
:1001B00022020319311703183117FF3022020319E5
:1001C000B1170318B11731088800080085018601AE
:1001D0008701880189018316FF308500C0308600C1
:1001E000DF30870000308800013089008F308100C7
:1001F00000308B0006309F00831241309F00031AAD
:100200000029203084008001840A80300406031D08
:1002100003293030242003301B203030242030309C
:100220002420383024200130242001301B200C30C1
:1002300024200630242064001F151F191D291E08C4
:0402400061201B29F5
:02400E00353F3C
:00000001FF
