:1000000000308A0004280000840183131F30830518
:10001000193083169900A63098009030831298000A
:1000200083161F149F141F159F1107309C00831205
:10003000A001A1012030A600861683168612831225
:100040008C1E48288C1E22281A08A60026084C3A26
:10005000031931287C3A03193628013A03193F283D
:10006000482883168801831288014828081C3A28EA
:1000700008103B2808148316081083124828881C8F
:10008000432888104428881483168810831248282F
:0400900020286300C1
:02400E00711F20
:00000001FF
;PIC16F877A
;CRC=C194  CREATED="09-Eyl-10 10:48"
