:1000000000308A00CA2900000A108A100A118207EB
:1000100042346934743420345334653474343A349B
:100020000D340A3400340A108A100A11820756343B
:1000300061346C346F347234203461346E3474340F
:10004000693467346F343A342034253475340D34D0
:100050000A3400340A108A100A1182074E346F34B1
:1000600076346F342034763461346C346F347234C7
:100070003A342034253475340D340A3400340A10EF
:100080008A100A118207533465347434203443349F
:100090006C346534613472343A340D340A340034CB
:1000A0000A108A100A1182074234693474342034E9
:1000B00054346534733474343A340D340A340034AF
:1000C0000A108A100A1182074234693474342034C9
:1000D00054345234553445340D340A3400340A1043
:1000E0008A100A1182074234693474342034463449
:1000F00041344C34533445340D340A340034B001A7
:10010000AE010A30AF00AD012B082C04031D8B2873
:100110000030F8007C293008B00A2B0784008313D4
:100120002C1883170008B10031082D3C031DA428AA
:100130000130AE003008B00A2B07840083132C185E
:1001400083170008B100B12831082B3C031DB128EA
:100150003008B00A2B07840083132C18831700087B
:10016000B10031082F3C031872293108393C031CB7
:1001700072293108303C031DDD2830082B0784002C
:1001800083132C1883170008783C0319D1283008F2
:100190002B07840083132C1883170008583C031D79
:1001A000DD281030AF00B00A3008B00A2B078400F9
:1001B00083132C1883170008B1002F080A3C031D75
:1001C000202931082F3C03181F293108393C031C12
:1001D0001F290A30B2002D08B300F701F8013208D8
:1001E00003103318F707F70CF80CB318F707F70CE0
:1001F000F80C3319F707F70CF80CB319F707F70CDD
:10020000F80C331AF707F70CF80CB31AF707F70CCA
:10021000F80C331BF707F70CF80CB31BF707F70CB8
:10022000F80C303031027807AD003008B00A2B07E7
:10023000840083132C1883170008B100E128722969
:100240002F08103C031D72293108603C03182F2928
:1002500031087A3C031C2F293108DF393029310855
:10026000B10031082F3C031839293108393C0318F3
:1002700041293108403C031872293108463C031CCF
:10028000722931082F3C031852293108393C031CCC
:1002900052292D0EB200F030B20530303102320753
:1002A000AD005B292D0EB200F030B20541303102B5
:1002B0000A3E3207AD003008B00A2B0784008313D2
:1002C0002C1883170008B1003108603C03186F290F
:1002D00031087A3C031C6F293108DF397029310855
:1002E000B10031292E0B7A292F080A3C031D7A29E7
:1002F000AD09AD0A2D08F80000342F08F8012E02D0
:10030000031885292E08F7009129F7010830B0005D
:10031000AE0DF70D2F0877020318F700F80DB00B9C
:100320008829003478082C08AE006430AF007D21A5
:100330007708AC0078083030031DA529AD1CAD2925
:10034000AD19AD292D1A2030A829AD112D122D146B
:10035000F80778080C1EAA2999002C08AE000A306C
:10036000AF007D217708AC0078083030031DBE292E
:10037000AD19C3292D1CC3292D1A2030F807780880
:100380000C1EC02999003030AC072C080C1EC62961
:1003900099000034840183131F30830519308316BC
:1003A0009900A630980090308312980083161F148D
:1003B0009F141F159F1107309C008312A001A101FB
:1003C0000530A6002030A700AA018C1EE5291A08D6
:1003D000A7002708733C031D4E2AAB012B080420FD
:1003E000AB0AF70077080C1EF32999000A302B029C
:1003F000031DEE292830840083138403840A8C1E95
:10040000FF291A0880000D300002031DFE2980011B
:10041000AC012830AB007F207808AA00AB012B0884
:100420001320AB0AF70077080C1E142A99000E302F
:100430002B02031D0F2A2608AC001B30AD009221B1
:100440000D300C1E212A99000A300C1E252A990015
:100450000130F7002A08F8000319322A0310F70DBB
:10046000F80B2E2A7708A604AB012B082A20AB0A2A
:10047000F70077080C1E3A2A99000C302B02031D56
:10048000352A2608AC001B30AD0092210D300C1E21
:10049000472A99000A300C1E4B2A99002708633C12
:1004A000031DB42AAB012B083F20AB0AF7007708E5
:1004B0000C1E582A99000C302B02031D532A283099
:1004C000840083138403840A8C1E642A1A08800023
:1004D0000D300002031D632A8001AC012830AB00FF
:1004E0007F207808AA00AB012B081320AB0AF70085
:1004F00077080C1E792A99000E302B02031D742AEE
:100500002608AC001B30AD0092210D300C1E862A4F
:1005100099000A300C1E8A2A99000130F7002A0837
:10052000F8000319972A0310F70DF80B932A7708A0
:10053000FF3AA605AB012B082A20AB0AF700770883
:100540000C1EA02A99000C302B02031D9B2A2608A2
:10055000AC001B30AD0092210D300C1EAD2A99006D
:100560000A300C1EB12A99002708743C031D002B89
:10057000AB012B085020AB0AF70077080C1EBE2AEF
:1005800099000B302B02031DB92A283084008313F5
:100590008403840A8C1ECA2A1A0880000D300002C7
:1005A000031DC92A8001AC012830AB007F207808E8
:1005B000AA002608F7002A08F8000319E32A031006
:1005C000F70CF80BDF2A771CF32AAB012B0860200D
:1005D000AB0AF70077080C1EEB2A99000A302B02B1
:1005E000031DE62A002BAB012B086F20AB0AF70096
:1005F00077080C1EF92A99000B302B02031DF42AF0
:04060000E529630085
:02400E00711F20
:00000001FF
;PIC16F877A
