:020000040000FA
:02000000F928DD
:08000800F000030EF1000408F2
:10001000F2000A08F30083018A018C1A53280B1995
:100020001A287208840073088A00710E8300F00E8B
:10003000700E09000B11A40A03302405820723283F
:100040002F283B2847280E308800A2102211A21129
:10005000051EA214851E2215091CA21511280D309B
:1000600088002212A2122213051E2216851EA21635
:10007000091C221711280B308800A2132310A3108B
:10008000051EA217851E2314091CA314112807306E
:100090008800A31123112210051E2315851E22148A
:1000A000091CA315112810303606031D5A28B60165
:1000B00080307D20263036078400B60A1A0880007A
:1000C0007E2011288716C830672087120800640038
:1000D000A100A0010000A00B6A28A10B6A2808005B
:1000E00089108B1388007428752809157728091141
:1000F0008914013067208B17080089108800802838
:100100008128091583280911891401306720080006
:100110008B1362200830B7000030B8002630BF20B3
:100120002A30BF202E30BF203230BF208B17640012
:10013000A3199728622008000830B7000030B800E3
:10014000AA207120B80A10303806031DA02880307C
:10015000702008003708831203178F0083120313DF
:100160003808831203178D00831603178C170C149D
:10017000831203170C0883120313BA0008008400CB
:100180003708831203178F00831203133808FC39D2
:10019000831203178D008312031700088C008E0151
:1001A000840A831603178C170C1555308D00AA305E
:1001B0008D008C14000000000C11831203178D0AAF
:1001C00003300D05031DCB28831603178C18E62872
:1001D000831203130430B8070318B70A080062201B
:1001E00080307020B8019C2064002319F42862201C
:1001F0000800850186018701880189018316FF3087
:100200008500C0308600DF30870000308800013074
:1002100089008F30810020308C0060308B000730E7
:100220009F00193099002430980083129030980074
:10023000031A1929203084008001840A80300406C2
:10024000031D1C298B17303070200330672030309D
:100250007020303070203830702001307020013034
:1002600067200C307020063070209C206400231919
:08027000EF20A31988203629B4
:101000004100700069006300650020005400650025
:1010100063006E006F006C006F00670069002E00B7
:02400E00353F3C
:00000001FF
