:1000000001308A006F2900000A108A100A11820745
:10001000473472346134763461346E3464346F340E
:100020002034733465346E34683461340D340A34EA
:1000300000340A108A100A1182074C3465346E3479
:1000400064346F342034733465346E34683461340E
:100050000D340A3400340A108A100A11820753340E
:1000600065346E346834613420347634E1346C3471
:100070006934643461340D340A3400340A108A104F
:100080000A118207533465346E3468346134203485
:1000900069346E347634E1346C34693464346134F8
:1000A0000D340A3400340A108A100A1182075334BE
:1000B00065346E34683461342034673472346134AA
:1000C00076346134643461343A34253453340D3435
:1000D0000A3400342030B500B601B508031986286B
:1000E0003608063C031C8628360803178D00831645
:1000F0008C130C1483120C080313B500223036073E
:100100008400831335088000B60A6D282230360734
:100110008400831380010034B40134083207840062
:1001200083133318831780080319C928340832074A
:1001300084008313331883170008B50034080317AD
:100140008D000313350803178C0083168C130C15D0
:10015000831203130B08F7008B1383160317553014
:100160008D00AA308D008C148C18B4280C117708DF
:10017000831203138B04340832078400831333186B
:1001800083170008B50035080C1EC4289900B40A6E
:100190008D2834083207840083133318831700082E
:1001A000B500340803178D000313350803178C00BE
:1001B00083168C130C15831203130B08F7008B1393
:1001C0008316031755308D00AA308D008C148C18BF
:1001D000E7280C117708831203138B046A20B501FA
:1001E00035085320B50AF70077080C1EF52899004A
:1001F0000E303502031DF0282230840083130030B6
:1002000000040319092900080C1E04299900840A16
:10021000FF280D300C1E0A2999000A300C1E0E29E9
:1002200099008A110A12B2293308FA0032088400B0
:1002300083137A1883170008B6003508FA003408CB
:10024000840083137A18831700083602031D3F29A0
:100250003308FA003208840083137A188317800861
:10026000031D35290030F80057293308FA003208F9
:10027000B20A0319B30AB40A0319B50A14293308D8
:10028000FA00320884008313331883170008B6007D
:100290003508FA00340884008313351883170008E2
:1002A000360203185529FF3056290130F8008A110B
:1002B0000A12D929333084008313000803196E29E8
:1002C0000130F800F701F70B6329F80B62294A3077
:1002D000F700F70B69296C29800B60290034840131
:1002E00083131F308305193083169900A6309800B8
:1002F00090308312980083161F149F141F159F11AE
:1003000007309C008312A001A101FF30A90020301A
:10031000AA008C1E192A8C1E8B291A08AA002A08EA
:10032000473C031DB229B20132080420B20AF7008B
:1003300077080C1E9929990010303202031D942968
:100340002B30840083138403840A8C1EA5291A0889
:1003500080000D300002031DA4298001B3012B3061
:10036000B2008C282A08533C031D192AB201320816
:100370001920B20AF70077080C1EBC2999000D302D
:100380003202031DB7292B30840083138403840AAF
:100390008C1EC8291A0880000D300002031DC729D1
:1003A00080016A20B3012B30B200B5012230B400C5
:1003B0001429F808031DFD29B20132082B20B20AC6
:1003C000F70077080C1EE22999000E303202031D57
:1003D000DD29071529112908831687002830831283
:1003E000B200FA30B3005A21B20BF12907112911DA
:1003F000290883168700182A8312B20132083E208A
:10040000B20AF70077080C1E032A99001030320256
:10041000031DFE2906148316061014308312B20041
:10042000FA30B3005A21B20B102A061083160610B8
:060430008312892963001C
:02400E00711F20
:00000001FF
;PIC16F877A
;CRC=BB5E  CREATED="09-Eyl-10 10:03"
