:1000000000308A0005290000FF00030E8301A100D3
:100010000A08A0008A010408A2007708A300780853
:10002000A4007908A5007A08A6007B08A70083131E
:1000300083128C308400001C1F280C1836288B1E5D
:1000400023280B193928220884002308F7002408E4
:10005000F8002508F9002608FA002708FB00200808
:100060008A00210E8300FF0E7F0E09008A110A12FA
:100070004F288A110A127D280A108A100A11820755
:100080003F3406345B344F3466346D347D3407348A
:100090006F3477347C3439345E34793471340B30D6
:1000A0008F00DC308E000130AE06AD03AD08031DBD
:1000B00079287830AD00A80A28080A3C031D792861
:1000C000A801AA0A2A08063C031D7928AA01A90A40
:1000D0002B08023C031D73282908043C031D7328C8
:1000E000AB01A901792829080A3C031D7928A90137
:1000F000AB0A0C108A110A12232830308100AC0A96
:1001000001302C02FC3E0318D228043ED628831668
:100110000612831206122B083C20AF0083168801BA
:1001200083122F0888008316861083128614D22823
:10013000831686108312861029083C20AF00831690
:10014000880183122F088800831606118312061572
:100150002E1CAE288316881383128817D228831684
:100160000611831206112A083C20AF00831688016D
:1001700083122F0888008316861183128615D228D1
:10018000AC01831686118312861128083C20AF002B
:100190008316880183122F088800831606128312A3
:1001A0000616D2280B118A110A1223280A108A1067
:1001B0000A11820787289828AF28C0280F30F70037
:1001C00007308101813084000008F0390738800051
:1001D00064000008F739F719F039770480008101CD
:1001E00083160108C739083881000B3083128F004D
:1001F000DC308E00B53090008B1683160C14C030A6
:1002000083128B048A110A12192984011F30830575
:1002100083161F149F141F159F1107309C00831213
:10022000A801A901AA01AB01AC017830AD002E10E4
:08023000DE28640019296300B7
:02400E00313F40
:00000001FF
;PIC16F877A
