:1000000000308A005B28000027308400831300083A
:10001000031918280130F800F701F70B0D28F80B29
:100020000C284A30F700F70B13281628800B0A28F3
:10003000003483168612831286162508A600A60AA7
:10004000A60303192728FF30A7000420202824082E
:10005000A7000420831686128312861283160613C5
:10006000831206172508A600A60AA60303193C2832
:10007000FF30A700042035282408A7000420831699
:100080000613831206138316861383128617250818
:10009000A600A60AA60303195128FF30A7000420D2
:1000A0004A282408A7000420831686138312861387
:1000B0008A110A127528840183131F308305831661
:1000C0001F149F141F159F1107309C00F4308312DA
:1000D000A2000130A300A1012108043C031C7728E1
:1000E0002308A5002208A4001928A10A6C2864305E
:1000F000A2020030031C0130A3022208643C031D4D
:100100008828A308031D88280130A300F430A2002A
:040110006B286300F5
:02400E00711F20
:00000001FF
;PIC16F877A
