:100000000E2BFF3FFF3FFF3F0000080008300313A7
:100010008312F000FF30F100F00B0F281228F10BD3
:100020000F280C281E30F000F00B14280800A53013
:1000300003138312F000F00B1B28000000000800DF
:10004000031383122B08840080014808F000700815
:10005000C800C81B8017481B0017C81A8016481A0A
:100060000016C819801548190015C81880144818BA
:1000700000142C08840001302D02031D4228FF309B
:10008000F1004328F101FF307102031D49280011DE
:100090004A280015801404208010013003138312B5
:1000A0002D02031D5828FF3003138312F1005B2833
:1000B00003138312F101FF30031383127102031D36
:1000C00063280620642817200800073003138312D2
:1000D000F00003138312F00B692808000313831246
:1000E000A401A5011030AA00290DA40DA50D260814
:1000F000A4022708031C270FA50203188628260838
:10010000A40727080318270FA5070310A80DA90D9A
:10011000AA0B742808000620062006200313831269
:100120004408AB004308AC002B088400841780010E
:100130002C08840080118417001180118010841312
:100140002B08840030308000062006200313831221
:100150002C088400801404208010031383122B08C1
:1001600084003030800006200620031383122C0800
:100170008400801404208010031383122B08840051
:100180003030800006200620031383122C088400E0
:10019000801404208010031383122B08840038304D
:1001A000800006200620031383122C08840080148C
:1001B00004208010031383122B0884001030800069
:1001C00006200620031383122C08840080140420C8
:1001D0008010031383122B08840001308000062056
:1001E0000620031383122C0884008014042080103E
:1001F000031383122B0884000F3080000620062092
:10020000031383122C088400801404208010013012
:1002100003138312AD0008000000013003138312A2
:100220004502031D1829803003138312C5003D29A0
:100230000230031383124502031D2329C030031328
:100240008312C5003D290330031383124502031DA9
:100250002E29943003138312C5003D290430031363
:1002600083124502031D3929D43003138312C500BC
:100270003D29803003138312C500031383124608FF
:100280004507F100F1037108C5004508C8002020AA
:1002900003138312AD01C3014708840000308407B3
:1002A0000008C400003003138312440203195D29BF
:1002B000FF3003138312F100602903138312F1014D
:1002C000FF30031383127102031D77290313831276
:1002D0004408C800202003138312C30A470884007F
:1002E00043088407000803138312C4005229013015
:1002F00003138312AD000800031383169816903081
:100300008312980083168717071300300313831294
:100310008C1A0130F10001307102031D9429FF3065
:1003200003138312F200972903138312F201FF30A3
:10033000031383127202031DA229031383121A08E6
:10034000C30085290800031383129F01C0301F04D6
:100350009F0083161F179F1783124508F100033073
:10036000F20000300313831272020319BB29F10D4E
:100370007110F20BB129031383121F0871049F003F
:100380001F146520031383121F15003003138312FB
:100390001F190130F10001307102031DD429FF3013
:1003A00003138312F200D72903138312F201FF30E3
:1003B000031383127202031DDF290000C5290313F2
:1003C00083121E08C300C4010830F000003003137C
:1003D000831270020319F129C30DC40D4310F00BF1
:1003E000E629031383161E0883124304F000440811
:1003F000F1007008C3007108C4001F10080000302D
:100400000313831698180130F10000307102031DA8
:100410000E2AFF3003138312F200112A03138312F2
:10042000F201FF30031383127202031D192A000028
:10043000FF29031383124308990008000313831252
:10044000A301A201A1018030A000A90CA80C031CEB
:10045000322A2608A10727080318270FA207031826
:10046000A30A0310A81F3A2A2608A2072708031880
:10047000270FA307A30CA20CA10CA00C031C252A78
:100480000800031383124608840020308000840A89
:100490008000840A8000840A8000840A8000840A24
:1004A00080010130C3000930F2000030F30045083C
:1004B0007302031D5D2A440872020318642AFF3088
:1004C00003138312F100672A03138312F101FF3033
:1004D000031383127102031D702A03138312C30ACC
:1004E000633003138312F2000030F30045087302F7
:1004F000031D7C2A440872020318832AFF30031369
:100500008312F100862A03138312F101FF300313D3
:1005100083127102031D8F2A03138312C30AE7306B
:1005200003138312F2000330F30045087302031D26
:100530009B2A440872020318A22AFF300313831275
:10054000F100A52A03138312F101FF300313831274
:100550007102031DAE2A03138312C30A0F30031363
:100560008312F2002730F30045087302031DBA2AF4
:10057000440872020318C12AFF3003138312F100EA
:10058000C42A03138312F101FF3003138312710293
:10059000031DCD2A03138312C30A031383124608D3
:1005A0008400043084073030800003138312F2018A
:1005B000430872020318E12AFF3003138312F1008B
:1005C000E42A03138312F101FF3003138312710233
:1005D000031D0D2B0A3003138312A6000030A70061
:1005E0004408A8004508A9006E20240880000A30AD
:1005F000A6000030A7004408A8004508A9006E2006
:100600002808F2002908F3007208C4007308C50026
:10061000303080078403C303D52A080084300313D5
:1006200083169F00413083129F00FF3083168500A0
:100630008801013089008030810009308312C300B5
:100640000830C4008B20013003138312C80020201F
:100650000C3003138312C8002020013003138312CF
:10066000C5000330C6005630B6006F30B7006C309E
:10067000B8007430B9006930BA006D30BB00653025
:10068000BC007430BD007230BE006F30BF00C001CE
:100690003630C7000C211930031383169900181542
:1006A0007C2103138312C501A32103138312430882
:1006B000AE004408AF000430A6000030A7002E08AA
:1006C000A8002F08A9006E202808C300FF210530CC
:1006D00003138312A6000030A7002E08A8002F08DD
:1006E000A9001E222008F1002108F2007108AE00C6
:1006F0007208AF002E08C4002F08C5003030C600B5
:100700004122023003138312C5000330C60047089C
:100710008400F100303084000030000203199E2B69
:10072000040803138312F2000008F3007108840028
:1007300073088000F10A720A84008C2B0313831261
:100740007108840020308000840A6D308000840AA3
:1007500076308000840A80010C2103300313831259
:10076000F100FF30F200FF30F300F10BB82BBF2B8C
:10077000F20BBB2BBE2BF30BBB2BB82BB52B8C304A
:10078000F100FF30F200F10BC62BC92BF20BC62B88
:10079000C32BA130F100F10BCB2B0000512BCF2B41
:02400E007A3FF7
:00000001FF
