:1000000000308A00F12A00000A108A100A118207C3
:10001000563461346C346F347234203441342F34AC
:100020004434203425343334753400340A108A10B3
:100030000A118207543465346E34733461346F347A
:100040002034253431342E3433346634203456345D
:100050000034343084008313000803193D28013034
:10006000F800F701F70B3228F80B31284A30F70077
:10007000F70B38283B28800B2F2800340B138B13E9
:100080008B1B3F2883168612831286128316091152
:1000900083120911831688018312250888005028CD
:1000A00083168910831289145528831689108312A8
:1000B000891083168801831220088800831686120F
:1000C000831286160130B4002920C0308B0400341E
:1000D0008316861383128613831606138312061360
:1000E0000830A500FA30B4002920A50B7228831629
:1000F0001F1383121F179F1383169F1383121F143E
:1001000083161F109F101F159F110030F8008312D7
:100110001F08C73978049F000F30F70007308101AE
:100120008130840083130008F039073880006400B0
:100130000008F739F719F039770480003030A5004E
:100140003E200330B40029203030A5003E2030305E
:10015000A5003E203830A5003E200130A5003E20FD
:100160000130B40029200C30A5003E200630A50047
:100170003E208A110A12FF2A0B138B138B1BBD28FA
:1001800083168612831286128316091183120915AB
:1001900083168801831233088800CE2883168910BD
:1001A00083128914D3288316891083128910831629
:1001B000880183122008880083168612831286160F
:1001C0000130B4002920C0308B0400342A08F80123
:1001D00029020318EE282908F700FA28F701083049
:1001E000AB00A90DF70D2A0877020318F700F80DE8
:1001F000AB0BF128003478082708A9006430AA0066
:10020000E6207708A70078083030031D0E29A81CC7
:100210001529A8191529281A20301129A8112812E2
:100220002814F8077808B300BC202708A9000A3072
:10023000AA00E6207708A70078083030031D262999
:10024000A8192A29281C2A29281A2030F8077808F2
:10025000B300BC203030A7072708B300BC208A11A8
:100260000A12182B8E30F7002608F8002508F9002E
:10027000FA01F808031D46297908F800F901083049
:10028000F702F808031D4629F7014E290310F81B51
:100290004D29F90DF80DF7034629F8138A110A12B2
:1002A000222B33080319C129BB0037080319C129C0
:1002B000BB07031862297F30BB02031CC129031945
:1002C000C12966298130BB070318C1293B08F70003
:1002D000F801F901FA013408BF00BF173508BE0064
:1002E0003608BD001830BB00BC013D1C8F293A0800
:1002F000FA07031C8129F90A031D8129F80A031949
:10030000BC173908F907031C8829F80A0319BC1718
:100310003808B500B5173508F8070318BC17BC0D29
:10032000F80CF90CFA0CBF0CBE0CBD0C0310BB0B87
:1003300074290130F7070318C129F81BA629BF0D3E
:10034000FA0DF90DF80DF7030319C129BF1FB729DD
:10035000FA0A031DB729F90A031DB729F80A031D74
:10036000B729F80CF90CFA0CF70A0319C12934085B
:10037000BC003808BC06BC1FBF29F817C529F813F4
:10038000C529F701F801F901FA010034F701F80174
:10039000F901FA01BB01BC01BD01BE013A083904F3
:1003A000380437040319042A2030BF000310B30DAA
:1003B000B40DB50DB60DBB0DBC0DBD0DBE0D3A088F
:1003C0003E02031DED2939083D02031DED293808C1
:1003D0003C02031DED2937083B02031CFE293708A8
:1003E000BB023808031C380FBC023908031C390F44
:1003F000BD023A08031C3A0FBE020314F70DF80DB4
:10040000F90DFA0DBF0BD6293B308400831300345D
:100410000408AB002A08AD000319272A2908B600F2
:100420002808B5002708B4002608B300BA01B901AE
:100430002030B8008230B70051217A08A90079082D
:10044000A8007808A7007708A600AD0B0E2A290897
:10045000B6002808B5002708B4002608B300330802
:10046000B63CB300FA013408B700B4170310B40C5B
:10047000B50CB60CFA0CF90CF80CF70CB30B362AC9
:10048000B71F4D2AF709F809F909FA09F70A0319FC
:10049000F80A0319F90A0319FA0A7A08A90079086F
:1004A000A8007808A7007708A600A91F642AAB0354
:1004B000AB16A609A709A809A909A60A0319A70A3C
:1004C0000319A80A0319A90A3B30B2009A30B100F7
:1004D000CA30B000AF010A30AD002A080319AB0AD8
:1004E0002908B6002808B5002708B4002608B3007C
:1004F0003208BA003108B9003008B8002F08B70038
:10050000C6210008A600840A0008A700840A000883
:10051000A800840A0008A900FD308407F708031D1D
:10052000A42A2A0A2D020319A42A2B080319A62A91
:100530000F392D0203199E2A0318D62AAB1BD62A7F
:100540002B1BA62A2030D22A2030AB05AB1EB42AA2
:10055000AB122A08031DAB037708AB002D30B300A4
:10056000BC202B08F700AB012A082D02031DC22A6C
:100570007708AB002E30B300BC202B08F7002030EA
:10058000AB0500303030AB1ED22AAB122A08031D57
:10059000AB037708AB002D30B300BC202B08F7006D
:1005A000AB013030F7077708B300BC203208B60043
:1005B0003108B5003008B4002F08B300BA01B90102
:1005C000B8010A30B700C6217A08B2007908B10034
:1005D0007808B0007708AF00AD0B702A8A110A12B4
:1005E000592B840183131F30830583161F149F1416
:1005F0001F159F1107309C008312A001682864001A
:100600008130A5003E201F151F19042B1E08A500D0
:10061000A60126080420A60AF700B300BC200A3071
:100620002602031D092B2508A7001330A800FB286C
:10063000C130A5003E201F151F191C2B1E08A60146
:10064000A50032297A08A4007908A3007808A2003E
:100650007708A1002408B6002308B5002208B400DA
:100660002108B300BA01B9012030B8007930B700D1
:1006700051217A08A4007908A3007808A20077081D
:10068000A100A50125081620A50AF700B300BC208B
:1006900007302502031D422B893084002408A9005D
:1006A0002308A8002208A7002108A6000330AA00FA
:1006B000082A2030B300BC205630B300BC201F15E0
:1006C0001F19602B1E081E3C0318682B2014692B71
:1006D00020101F151F196A2B1E083E3C0318722B91
:1006E000A014732BA0101F151F19742B1E085E3C3D
:1006F00003187C2B20157D2B20111F151F197E2B15
:100700001E087E3C0318862BA015872BA0111F15F1
:100710001F19882B1E089E3C0318902B2016912B26
:1007200020121F151F19922B1E08BE3C03189A2B6E
:10073000A0169B2BA0121F151F199C2B1E08DE3C18
:100740000318A42B2017A52B20131F151F19A62B48
:100750001E08FF3C031DAE2BA017AF2BA013831662
:1007600088018312200888006430B4002920FF2A01
:02077000630024
:02400E00313F40
:00000001FF
;PIC16F877A
