:10000000FD29FF3FFF3FFF3F003003138316141904
:100010000130F1007108003A031D18281F30110546
:10002000F1007108003A031D18280130F0000800A3
:10003000F001080000000800083003138312FB00E1
:10004000FF30FA00FB0B25282828FA0B2528222848
:100050001E30FA00FA0B2A2808001030031383120E
:10006000FA00FA0B31280000080003138312D001B4
:10007000D1015108123C031D3F2850088E3C031C3F
:100080004A2804207008031D4A288312D00A031945
:10009000D10A39280313831212305102031D52284A
:1000A0008F305002031C57287B30F0000800831665
:1000B0001114111C5D2800005928F00108000313D9
:1000C0008312500893008316141D682800006328CB
:1000D0000030111B0130F1007108003A031D722835
:1000E000F001080011150230F00008000313831618
:1000F0009114911C7D2800007928080003138316B1
:100100009115911D85280000812883121308D100C4
:100110008316911283125008003A031D912883160A
:10012000911603138316111683125108F00008006C
:10013000031383161115080003138312200884008B
:10014000800150080319A428D01B8017501B0017EA
:10015000D01A8016501A0016D019801550190015A3
:10016000D0188014501800142108840000152208AB
:100170000319BB28001180141A20801022080319CB
:10018000C3281C20C4282D2008003520A0300313CC
:100190008312D0005F2083124D08D0005F207620AC
:1001A000A1308312D0005F208312D0017E2070081E
:1001B000CE00982083124E08F0000800F828803006
:1001C00003138312CD000D29C03003138312CD0019
:1001D0000D29943003138312CD000D29D43003135D
:1001E0008312CD000D29803003138312CD000D2919
:1001F00003138312031383124D08013A0319DF28F6
:100200004D08023A0319E4284D08033A0319E92876
:100210004D08043A0319EE28F328031383124E0302
:10022000F0004D08F0077008CD007008D0009C2049
:10023000A2014F08D0009C200130A2000800352008
:10024000A03003138312D0005F2083124D08D0002A
:100250005F2083124E08D0005F2098200730FB00FB
:10026000FF30FA00FB0B35293829FA0B35293229E2
:100270007830FA00FA0B3A29000000000800031356
:100280008312A3010313831223080F3C031C582974
:100290002308CD00C5207008A4000130CD00230A3A
:1002A000CE007008CF00DE2003138312A30A422978
:1002B000103003138312A3000313831223081F3C7F
:1002C000031C73292308CD00C5207008A400023048
:1002D000CD000F302302CE007008CF00DE200313C4
:1002E0008312A30A5C2908000030031383128C1ABE
:1002F0000130F1007108F0000800031383121A089E
:10030000C800981C85291812181603138312480870
:10031000F000080000300313831698180130F10034
:100320007108003A031D962900008A2903138312DD
:1003300048089900080003138312A30103138312D2
:1003400023081F3C031CB0292308CD002308253FA8
:1003500084000008CE001F2103138312A30A9E29E4
:100360000800031383161413941338308312940077
:1003700038308316870408001C201C201C2003131F
:1003800083124908A00049088400841780014808A6
:10039000A10048088400801184170011801180108A
:1003A00084130130A2003030D0009C203030D000C7
:1003B0009C203030D0009C203830D0009C20083069
:1003C000D0009C200130D0009C200630D0009C2022
:1003D0000C30D0009C200800031383169816903030
:1003E00083129800831687170713031383128C1E3A
:1003F000FC291A08CC00F5290800FF3003138316E6
:10040000850088010130890007309F000A30930081
:10041000B1218030810009308312C8000830C90042
:10042000BC210130D0009C200C30D0009C20193021
:10043000831699001815EC213F210130C5000130C9
:10044000C600C70174210313831270080319532ACD
:100450007D217008A4007008C8008A214708253F44
:10046000F0007008840024088000C70A4508CD0009
:100470004608CE002408CF00DE20C60A4608113AFE
:10048000031D532A0130C6004508013A031D4B2ABB
:100490000230C5004F2A013003138312C5009B218F
:1004A00003138312C701222A542AFF3FFF3FFF3F55
:02400E00313F40
:00000001FF
