:100000002229FF3FFF3FFF3FFF00030E8301AC00AB
:100010000408AB000A08AD008A017008AF00003088
:100020000B190130F2007208013A031D68280B1108
:10003000A00A5728061201302002F000F101031C2B
:10004000F1037008213F84000008880086146728A7
:10005000861001302002F000F101031CF10370084A
:10006000213F840000088800061525080319392857
:1000700088176728061101302002F000F101031CE7
:10008000F1037008213F8400000888008615672866
:10009000861101302002F000F101031CF103700809
:1000A000213F8400000888000616A0016728200868
:1000B000013A03191A282008023A031928282008AF
:1000C000033A03193A282008043A031948289628C5
:1000D0000B308F00DC308E000C1025080130031D22
:1000E0000030A500A6032608003A031D96287830A4
:1000F000A600A70A27080A3A031D9628A701A80AFE
:100100002808063A031D9628A801A90A2A08023AD7
:10011000031D90282908043A031D9028AA01A9016B
:1001200029080A3A031D9628A901AA0A2F08F000F7
:100130002D088A002B0884002C0E8300FF0E7F0EF2
:100140000900D4283F3003138312F0000800063062
:10015000F00008005B30F00008004F30F0000800AD
:100160006630F00008006D30F00008007D30F000CF
:1001700008000730F00008007F30F00008006F3002
:10018000F00008007730F00008007C30F000080034
:100190003930F00008005E30F00008007930F000DF
:1001A00008007130F0000800031383122E08003A93
:1001B0000319A2282E08013A0319A7282E08023A8B
:1001C0000319AA282E08033A0319AD282E08043A69
:1001D0000319B0282E08053A0319B3282E08063A49
:1001E0000319B6282E08073A0319B9282E08083A29
:1001F0000319BC282E08093A0319BF282E080A3A09
:100200000319C2282E080B3A0319C5282E080C3AE8
:100210000319C8282E080D3A0319CB282E080E3AC8
:100220000319CE282E080F3A0319D12808000030F0
:1002300003138312AA000030A9000030A800003088
:10024000A7000800172183168501860188018030E8
:1002500081008312A001AA01A901A801A701013010
:1002600083168C003130831290000B308F00DC300D
:100270008E007830A600A501E0308B002A08AE0081
:10028000A120031383127008A1002908AE00A12049
:10029000031383127008A2002808AE00A1200313E4
:1002A00083127008A3002708AE00A1200313831255
:1002B0007008A4003E295B29FF3FFF3FFF3FFF3F3F
:02400E00313F40
:00000001FF
