:100000003B28FF3FFF3FFF3F0313831222080317E4
:100010008D0083168C130C1483120C080313A1009B
:10002000080000000030031783168C180130F1001F
:1000300001307102031D1F28FF30F2002028F20159
:10004000FF307202031D26280000122803138312BA
:10005000210803178D000313220803178C00831651
:100060008C130C158B1355308D00AA308D008C1419
:100070008B170C1108000313831286018316860167
:10008000880107309F00803081008312A201042084
:10009000031383122108A000031383120313831296
:1000A0008616200888000330F100FF30F200FF3090
:1000B000F300F10B5C286328F20B5F286228F30B36
:1000C0005F285C2859288C30F100FF30F200F10BDA
:1000D0006A286D28F20B6A286728A130F100F10B1D
:1000E0006F2800008612FE3088000330F1000313F1
:1000F0008312F10B77280030051A0130F20000302E
:100100007202031D8828FF3003138312F3008B282B
:1001100003138312F301FF30031383127302031DD1
:100120009C28031383122008F100F10A7108A00033
:10013000A1012008A2001120003003138312851AA8
:100140000130F20000307202031DAB28FF300313B0
:100150008312F300AE2803138312F301FF3003135D
:1001600083127302031DBF28031383122008F100BA
:10017000F1037108A000A1012008A20011204C2861
:10018000C028FF3FFF3FFF3FFF3FFF3FFF3FFF3FD5
:02400E007A3FF7
:00000001FF
