:1000000000308A001928000024308400831300087F
:10001000031918280130F800F701F70B0D28F80B29
:100020000C284A30F700F70B13281628800B0A28F3
:100030000034840183131F30830583161F149F141B
:100040001F159F1107309C00E8308312A300A10107
:10005000A2012208073C031C3F28A10803193328EA
:100060000310A10D35280130A100831686018312EB
:10007000210886002308A4000420A20A2928831648
:100080008601831286012308A4000420A20122080D
:10009000083C031C5728831686018312210886001A
:1000A0000310A10C2308A4000420A20A4728272833
:0200B0006300EB
:02400E00711F20
:00000001FF
;PIC16F877A
