:1000000000308A001B28000024308400831300087D
:10001000031918280130F800F701F70B0D28F80B29
:100020000C284A30F700F70B13281628800B0A28F3
:100030008A110A124928840183131F30830583160D
:100040001F149F141F159F1107309C00FF3083124F
:10005000A000A101A201FF308316860083120608CA
:10006000A100FF30A0008316870083120708A200BA
:100070002108E73C031D4F282208923C031D4F280E
:1000800083160510831205140830A300FA30A4006B
:100090000428A30B46288316051083120510210897
:1000A000E73C031D65282208923C031D6528FF30AC
:1000B0008316860083120608A100FF30A000831675
:0E00C000870083120708A2004F282B28630038
:02400E00711F20
:00000001FF
;PIC16F877A
