:1000000000308A001928000024308400831300087F
:10001000031918280130F800F701F70B0D28F80B29
:100020000C284A30F700F70B13281628800B0A28F3
:100030000034840183131F30830583161F149F141B
:100040001F159F1107309C008312A101A2012208F5
:10005000073C031C3D280310210D013EA10083161F
:1000600086018312210886000430A300FA30A40020
:100070000420A30B3628A20A2728A2012208073C45
:10008000031C562801302102F7000310770CA10051
:10009000831686018312210886000430A300FA30FB
:1000A000A4000420A30B4F28A20A3E2825286300A1
:02400E00711F20
:00000001FF
;PIC16F877A
