:1000000000308A006F290000FF00030E8301A10069
:100010000A08A0008A010408A2007708A300780853
:10002000A4007908A5007A08A6007B08A70083131E
:1000300083128B1D1D280B183028220884002308EA
:10004000F7002408F8002508F9002608FA00270818
:10005000FB0020088A00210E8300FF0E7F0E09009E
:100060008A110A12CB280A108A100A11820750340A
:1000700069346E346F342034423434342034733471
:100080006F34663472346534753420346D347534AD
:10009000643461346E34E73461342034643465345C
:1000A0002034653473347434613464346F342134EF
:1000B00000340A108A100A118207503469346E34F1
:1000C0006F34203442343534203473346F34663422
:1000D00072346534753420346D347534643461346D
:1000E0006E34E7346134203464346534203465344C
:1000F00073347434613464346F34213400340A103E
:100100008A100A118207503469346E346F342034F7
:1001100042343634203473346F3466347234653488
:10012000753420346D347534643461346E34E7349E
:100130006134203464346534203465347334743469
:10014000613464346F34213400340A108A100A1187
:100150008207503469346E346F342034423437347B
:10016000203473346F34663472346534753420341B
:100170006D347534643461346E34E7346134203462
:1001800064346534203465347334743461346434D5
:100190006F34213400348316061600308312061A99
:1001A000013028020319EE28AE012E083320003852
:1001B0000319DF28AE0A0C1EDB289900D5280D3064
:1001C0000C1EE02899000A300C1EE42899008316C2
:1001D00006168312A801061AA80A5629831686163F
:1001E00000308312861A0130290203191129AE0149
:1001F0002E085920003803190229AE0A0C1EFE28C9
:100200009900F8280D300C1E032999000A300C1EA5
:1002100007299900831686168312A901861AA90A4E
:1002200056298316061700308312061B01302A0256
:1002300003193429AE012E087F200038031925291F
:10024000AE0A0C1E212999001B290D300C1E2629EF
:1002500099000A300C1E2A2999008316061783126A
:10026000AA01061BAA0A5629831686170030831294
:10027000861B01302B0203195629AE012E08A5203A
:10028000003803194829AE0A0C1E442999003E295A
:100290000D300C1E492999000A300C1E4D29990079
:1002A000831686178312AB01861BAB0A0B108A11CB
:1002B0000A121D282D3084008313000803196E29AB
:1002C0000130F800F701F70B6329F80B62294A3077
:1002D000F700F70B69296C29800B60290034840131
:1002E00083131F308305193083169900A6309800B8
:1002F00090308312980083161F149F141F159F11AE
:1003000007309C0006168312A801061AA80A831655
:1003100086168312A901861AA90A83160617831264
:10032000AA01061BAA0A831686178312AB01861B35
:10033000AB0AC83003178B0403138817831688137E
:1003400002308312AC00FA30AD005A21AC0BA32965
:100350008813831688138312081783160813023034
:100360008312AC00FA30AD005A21AC0BB22908134D
:10037000831608138312881683168812023083129C
:10038000AC00FA30AD005A21AC0BC129881283169B
:0A0390008812831203179C296300F2
:02400E00711F20
:00000001FF
;PIC16F877A
